:1000000000600020E90400002D050000310500001B
:1000100000000000000000000000000000000000E0
:100020000000000000000000000000003505000096
:100030000000000000000000390500003D05000040
:100040004105000045050000490500004D05000080
:1000500029050000290500002905000029050000E8
:100060005105000055050000590500005D05000020
:100070006105000065050000690500002905000014
:1000800029050000290500002905000029050000B8
:100090002905000029050000290500006D05000064
:1000A0002905000029050000290500002905000098
:1000B0002905000029050000290500002905000088
:10040000FFFFFFFFFFFFFFFFFFFFFFFFFE3FFFFFBD
:1004100010B5064C2378002B07D1054B002B02D0DA
:10042000044800E000BF0123237010BDD8E0FF1F87
:1004300000000000B0DE000008B5084B002B03D020
:100440000748084900E000BF07480368002B03D0B5
:10045000064B002B00D0984708BDC04600000000A6
:10046000B0DE0000DCE0FF1FD4E0FF1F0000000052
:10047000164B002B00D1144B9D46402292029A1A33
:10048000924600218B460F461348144A121A0AF06E
:10049000B0FF0F4B002B00D098470E4B002B00D025
:1004A00098470020002104000D000D48002802D0CC
:1004B0000C4800E000BF0AF06DFF2000290005F0A5
:1004C00035FE0AF051FFC046000008000060002021
:1004D0000000000000000000D8E0FF1F1CEAFF1F22
:1004E000000000000000000072B6084808490160E2
:1004F000084880470849094A094B9B1A03DD043B19
:10050000C858D050FBDC62B60648804708ED00E0D2
:100510000000000081460000D8DE000000E0FF1F60
:10052000D8E0FF1F71040000114800471148004740
:10053000114800471148004711480047114800473B
:10054000114800471148004711480047114800472B
:10055000114800471148004711480047114800471B
:10056000114800471148004711480047114800470B
:10057000290500002D0500003105000035050000AB
:10058000390500003D0500009D820000B582000095
:10059000CD820000E5820000C1830000E1830000FD
:1005A000D1990000159A0000C5880000E988000074
:1005B0006183000051900000002934D00123002203
:1005C00010B488422CD301242407A14204D28142D2
:1005D00002D209011B01F8E7E400A14204D28142E2
:1005E00002D249005B00F8E7884201D3401A1A435F
:1005F0004C08A04202D3001B5C0822438C08A04296
:1006000002D3001B9C082243CC08A04202D3001B4B
:10061000DC082243002803D01B0901D00909E3E7C5
:10062000101C10BC7047002801D00020C04307B444
:10063000024802A14018029003BDC046D900000044
:100640000029F0D003B5FFF7B9FF0EBC4243891A69
:100650001847C046002941D010B4041C4C40A446A1
:1006600001230022002900D54942002800D540423C
:1006700088422CD301242407A14204D2814202D211
:1006800009011B01F8E7E400A14204D2814202D231
:1006900049005B00F8E7884201D3401A1A434C082E
:1006A000A04202D3001B5C0822438C08A04202D364
:1006B000001B9C082243CC08A04202D3001BDC088C
:1006C0002243002803D01B0901D00909E3E7101CCD
:1006D0006446002C00D5404210BC7047002806D06C
:1006E00003DB0020C043400801E08020000607B47F
:1006F000024802A14018029003BDC0461900000044
:100700000029EBD003B5FFF7A7FF0EBC4243891ABF
:100710001847C0467047C0468446101C62468C4647
:10072000191C634600E0C0461FB501F09FFA00287F
:1007300001D40021C8421FBD10B501F0CFF94042DD
:10074000013010BD10B501F091FA002801DB002046
:1007500010BD012010BDC04610B501F087FA002879
:1007600001DD002010BD012010BDC04610B501F014
:10077000FFF9002801DC002010BD012010BDC0469B
:1007800010B501F0F5F9002801DA002010BD0120B4
:1007900010BDC0468446081C6146FFE71FB500F047
:1007A0000BFB002801D40021C8421FBD10B500F08A
:1007B00091FA4042013010BD10B500F0FDFA00285A
:1007C00001DB002010BD012010BDC04610B500F0B7
:1007D000F3FA002801DD002010BD012010BDC04645
:1007E00010B500F0A1FA002801DC002010BD0120A6
:1007F00010BDC04610B500F097FA002801DA0020BD
:1008000010BD012010BDC046002B15D1002A13D108
:10081000002900D1002807D003DB0020C043410895
:1008200002E080210906002007B4024801A1401817
:10083000029003BDE1FEFFFF03B4684601B50298D4
:1008400000F0A6F8019B9E4602B00CBC7047C04663
:10085000002B11D1002A0FD1002900D1002802D08D
:100860000021C943081C07B4024802A140180290A5
:1008700003BDC046A1FEFFFF03B4684601B5029860
:1008800000F0A2F8019B9E4602B00CBC7047C04627
:100890009C460304F0B51B0C17043F0C150C1E1CE2
:1008A000041C000C7E436B4347434543FB18300C4C
:1008B0001818874202D980235B02ED18030CED184B
:1008C00063465C434A433604360CA1180004801981
:1008D0004919F0BD0000000038B50E4B0C4A051C4C
:1008E0000C1CFFF72FFF002804D1281C211C00F04E
:1008F00013F838BD80231B06E118281C00F00CF803
:10090000021C0B1C002150429941F2E7C046C04630
:10091000000000000000000070B50E4B0C4A0D1CDA
:10092000041C01F021FA02F0FBF8061C02F052F858
:10093000094A0A4B01F018FA021C0B1C201C291C46
:1009400001F0A2FC02F0ECF8311C70BDC046C046BC
:10095000000000000000F03D000000000000F04139
:1009600070B5061C081C01F0F7FF084B064A01F0A1
:10097000FBF90D1C041C301C02F02CF82B1C221C53
:1009800000F066FA70BDC046000000000000F041B3
:10099000F0B583B0161C1F1C0090019102F0E0F826
:1009A000041C0D1C221C2B1C301C391CFFF770FF73
:1009B000009A019B121A8B410899201C0A604B6017
:1009C000291C03B0F0BDC046F0B583B0141C1D1C3B
:1009D0000090019102F0A0FA221C2B1C061C0F1C97
:1009E000FFF756FF009A019B121A8B410899301CA1
:1009F0000A604B60391C03B0F0BDC046F8B5430235
:100A00004400C50F4E024800240E2A1C9B09000E0C
:100A1000C90FB6098D425BD0221A002A00DC89E09A
:100A200000281DD1002E00D075E0580704D00F22F9
:100A30001A40042A00D004338021C90419402A1C1A
:100A400000293AD00134FF2C00D17FE09B015B0AE2
:100A50005B02E4B2E405580AD20720431043F8BD14
:100A6000FF2CE2D08021C9040E431B2A00DD2DE1BA
:100A7000311C2020D140821A9640721E96410E43AE
:100A80009B1B5801D1D59B019F09381C02F028F807
:100A9000421F974094425BDC141B1F231B1B3A1C14
:100AA0009F40611C3B1CCA405F1EBB411343002496
:100AB000BBE7131EB9D100230022DB08FF2C04D1B1
:100AC000002B43D08020C00303435B025B0ABFE7D7
:100AD000211A002940DD002823D0FF2CA5D080203A
:100AE000C00406431B2900DDEEE0301C2027C8406F
:100AF000791A8E40711E8E4106439B19590100D40C
:100B000093E70134FF2C55D0714901221A400B4064
:100B10005B08134389E7013A002AB1D0FF2CA4D126
:100B200083E7002E00D180E701390029E5D0FF2CB2
:100B3000D8D17AE7002A1BD1621CD2B2012A4BDD40
:100B40009F1B7A0123D5F71A0D1C9EE700237FE730
:100B50005F4BA41A3B4068E7002946D1611CC8B22C
:100B6000012829DDFF2924D0F3185B080C1C5CE761
:100B7000002C13D0FF2818D08024E40452422343D1
:100B80001B2A4DDD0123F31A041C0D1C79E7002FED
:100B900000D07AE70023002200248EE7002B3BD010
:100BA000D243002AEFD0FF28EAD1331CFF240D1CCA
:100BB0003BE7FF24002380E7002C5CD1002B00D111
:100BC00080E0002E00D130E79B19580100D42CE7BB
:100BD0003F4A0124134028E7002C15D1002B40D1B7
:100BE000002E63D0331C0D1C1FE7002C21D1002BDD
:100BF00054D0C943002904D0FF284CD01B2958DD0C
:100C000001239B19041C79E7002B19D1002E48D031
:100C1000331C0D1CFF2408E7331C041C0D1C04E7C7
:100C20001C1C2025D440AA1A93405A1E93412343EA
:100C3000A9E7FF282FD08024E40449422343DDE7BD
:100C4000FF24002E00D1F0E68022DB08D2031342FD
:100C500004D0F608164201D1331C0D1CDB00FF2422
:100C6000E3E6002E00D1E0E69A1B500100D420E715
:100C7000F31A0D1CD9E6002B0DD0FF24002E00D155
:100C8000D3E68022DB08D2031342E7D0F6081642EF
:100C9000E4D1331CE2E7331CFF24C6E6331C041CFA
:100CA000C3E6802300229B04FF2406E7231C0022C6
:100CB00003E71C1C2027CC40791A8B40591E8B411E
:100CC00023439EE7331CB0E6012616E70126D7E64C
:100CD000FFFFFFFB4A02430270B55C0A550A43005E
:100CE0004A001B0EC60F120EC90FFF2B05D0FF2A9C
:100CF00008D0012093420BD070BD0120002CFBD105
:100D0000FF2AF6D10120002DF6D101209342F3D124
:100D1000AC42F1D18E4205D0002BEDD1201C441EF7
:100D2000A041E9E70020E7E74A024302F0B55C0A88
:100D3000550A43004A001B0EC60F120EC90FFF2BA7
:100D400031D0FF2A34D0002B16D160426041844656
:100D5000002A14D0002820D18E4217D1934215DCEE
:100D600004DBAC4212D80020AC4212D27042704177
:100D70004042012318430CE0002AEDD194466F4213
:100D80006F416046002805D1002FE5D07042012355
:100D90001843F0BD0020002FFBD14842484140429B
:100DA00001231843F5E7002CCBD002204042F0E7A6
:100DB000002DC8D0F9E7C0464A024302F0B55C0AEC
:100DC000550A43004A001B0EC60F120EC90FFF2B17
:100DD00027D0FF2A29D0002B10D0002A15D1944605
:100DE0006F426F416046002815D00020002F04D1CB
:100DF00048424841404201231843F0BD60426041EF
:100E00008446002AECD00028F2D18E4211D07042E4
:100E100001231843F1E7002FF7D070420123184354
:100E2000EBE70220002CE8D1D3E70220002DE4D12B
:100E3000D1E79342EBDC04DBAC42E8D80020AC42C3
:100E4000DBD270427041404201231843D5E7C046CF
:100E5000F8B55F46564644464D46F0B40C034D0087
:100E6000CE0F610A440F2143C40018038046580086
:100E7000400D8246D80F84464046400A530F034334
:100E8000D0006D0D371C83465246664500D1A4E064
:100E9000AF1A002F00DC09E1002A3BD1184300D033
:100EA000EAE0630700D187E00F232340042B00D141
:100EB00082E0221DA242A4416442802309191B043E
:100EC0000B40371C141C002B00D17CE0CE4B0135AD
:100ED0009D4200D105E1CD4BE40819404807490285
:100EE00004430B0B002000211B031A0B0B0D6D0597
:100EF0001B0513436A08C64DFF071D4015436D00CF
:100F00006D08291C3943201C3CBC90469946A246DA
:100F1000AB46F8BDBC488542C3D0802000040343E3
:100F2000382F00DDF0E01F2F00DD24E12020C01B62
:100F30001A1C814682405846F8400243944658465F
:100F40004A469040421E9041FB40624602431F1CAD
:100F5000A21A9442A4416442C91B091B141C0B022F
:100F60009FD549024F0A002F00D1C8E0381C01F07C
:100F7000B7FD021C083A1F2A00DDB5E02821091A36
:100F8000201C9740C84007439440954200DDB2E0E2
:100F9000551B691C1F2900DDDCE01F22551B3B1C73
:100FA000221CAB40CA40AC40651EAC411343CF404D
:100FB0001C43391C002574E780231B040B40371C9D
:100FC000002B00D082E7904B4807E4080443C9088F
:100FD0009D4248D009030B0B84E7AA1A9446002AC5
:100FE00000DC98E05046002852D08748854200D166
:100FF00057E78020000403436246382A00DDFCE006
:101000001F2A00DD4AE120226046101A1A1C824085
:101010008246914658466246D0404A460243904630
:10102000584652469040421E904142460243604616
:10103000C3401219A242A441644259180919141C50
:10104000080200D42DE7704B01359D4200D122E10A
:101050006E4B60081940012323401C1C0443CB073E
:101060001C4349081DE7231C0B433AD080231B0374
:101070000B431B031B0B35E7013F002F65D158467F
:10108000221A9442A4416442C91A091B141C66E73F
:101090005846184300D104E7012252429444604666
:1010A000002800D0C5E058460219C3E7002F73D1CD
:1010B000681C4005400D012800DCDEE05A46A21AFB
:1010C0009442BF41C81A7F42C71B380200D489E04E
:1010D0005A46141BA3459241591A52428F1A66462A
:1010E00041E700230024FDE6271C28388740002420
:1010F000954200DC4CE74549AD1A3940D1E6201C49
:1011000001F0EEFC203034E75A461A43531E9A4150
:10111000D2B200271CE7002A00D0DCE0681C4205A0
:10112000520D012A00DC8DE0374DA84200D1F3E0DA
:101130005D462A19A242A441644259180919CC07F4
:10114000520814434908051CABE62F48854200D0DD
:10115000E6E6A6E62B1C1F3B3A1CDA40131C2029AE
:101160006CD03F22551BAF403C43601E84411C4362
:101170000021002595E6381C20381A1CC240101C9E
:10118000202F5DD04022D71BBB405A461A43531E26
:101190009A4102430027DBE6002D3BD01A4DAA45B9
:1011A00000D193E080252D047F422943382F00DDB4
:1011B000ACE01F2F00DD29E12025ED1B081C261CBB
:1011C000A840FE40AC400643651EAC413443F940A4
:1011D0005D462C1BA34592415B1A5242991A554613
:1011E0006646BCE6131C3B43141C002B00D0BAE639
:1011F0000027002100250024E5E65A461A43531E25
:101200009A41D2B2002314E7FF070000FFFF7FFFDF
:10121000FFFF0F800D1C254358D0FF43002F51D1F5
:10122000041BA3459241591A5242891A55466646F3
:1012300095E69648854200D0DEE632E6002793E741
:101240000023A2E7081C2043002D00D0C4E00028A2
:1012500000D1F7E05846184300D122E6584602195B
:10126000A242A441644259180919141C0A0200D46C
:1012700017E6874B0125194013E6081C2043002D73
:1012800039D1002871D15946194303D0191C5C4645
:10129000664606E600270021002494E660462038D2
:1012A0001A1CC24060469146202800D1ACE0402282
:1012B000121A93405A461A43531E9A414B461A43F8
:1012C0000023B6E6714DAA4500D06FE7191C5C46B5
:1012D00055466646E5E5002D22D10D1C254377D005
:1012E000D543002D71D15C445C459241591852425E
:1012F00089185546A4E600284DD15946194300D116
:1013000094E0191C5C466646604DCAE50C43611EBC
:101310008C41E4B200215BE7051C0021002452E669
:101320005A4DAA4554D05542802210040143382D0D
:1013300000DD81E01F2D00DD92E02022501B0A1C01
:1013400084468240201CE840024390466246944016
:10135000601E844142461443E9405C445C4592412E
:10136000CB185242991855466AE65846184300D1A0
:1013700097E55846271ABC429241C81A5242801A31
:10138000020266D55846041BA3459241591A52429F
:10139000891A664685E55846184333D04807E4085D
:1013A00004438020C9080003014208D0DD0805423B
:1013B00005D15946CA085C071443291C6646630FC9
:1013C000C9001943E400314D6BE5304A9245AED176
:1013D000191C5C46554664E5002836D0584618432B
:1013E00010D080254807E408C9082D03044329428A
:1013F000E5D0D8082842E2D15D46EA085C071443EC
:10140000011CDCE7214D4CE5002353E73D1C203D4A
:101410000A1CEA40151C202F34D04026F71BB94087
:101420000C43611E8C412C430021D1E68021002712
:10143000C903164D0024C6E50C43611E8C41E4B27D
:1014400000218AE7191C5C462BE5191C5C460F4DF0
:1014500027E5031C3B4300D11CE7011C3C1C20E595
:101460002020404240190A1CC2409046202D0BD03B
:101470004020451BA9400C43611E8C4145462C432E
:1014800000216AE70021CBE70021F4E7FF07000015
:10149000FFFF7FFFF0B5564644465F464D46F0B429
:1014A0001F1C0B031B0B98464B0087B0041C814686
:1014B0005B0DC80F161C9A460090002B51D06A4B4A
:1014C0009A4531D08022414652030A43630FD2002D
:1014D0001A43664B90460025E20091469A44002448
:1014E00002953B031B0B9B46FD0F7B00311C5B0DE4
:1014F000019560D05C4A934254D0802158464903FC
:101500000143720FC9001143584A8B469B18F100E2
:101510000020009A04436A4003920F2C00D9ADE0EA
:10152000534EA4003459A746404604436ED10021CF
:1015300002250824884689460295D2E7009C029835
:10154000C34649460194022864D0032800D1ABE287
:10155000012800D038E2019A002402400025A1466B
:1015600060E0434623434AD04046002800D1C0E112
:1015700001F0B6FA031E272B00DDB3E128210D1A76
:10158000211C083B4246E9409A400D1C1543221C91
:101590009A40A8469146374B00251B1A9A460024CC
:1015A00002959EE75A4616430320002EB1D1B3465A
:1015B00000210220ADE75A4632431BD05B46002B88
:1015C00000D18AE1584601F08BFA272800DD7DE141
:1015D0002822171A011C321C08395B46FA408B403E
:1015E000171C1F43331C8B40BB46191C214B1B1A75
:1015F00000208EE70027BB460021012089E700205C
:10160000012504248046814602956AE703250C24BF
:10161000029566E7019C0394039D01222A40002461
:10162000114DA146002000212403260B0C0D24059A
:10163000114B34432D0523402B435B005B08D2073D
:10164000191C4846114307B03CBC90469946A24637
:10165000AB46F0BD0022802424039146024DE1E711
:1016600000240025A146DDE7FF07000001FCFFFF85
:10167000D8D500000DFCFFFFFFFF0F805546ED1A87
:101680000495D84500D953E100D14EE1049C0025D2
:10169000013C4E4604944746A946584603020C0EA8
:1016A0001C430902250C23041B0C0091381C291C27
:1016B0000193FEF781FF019983464143381C8A4616
:1016C000291CFEF7BDFF330C090419438A450CD9C8
:1016D0005B460919013B8C4200D947E18A4500D895
:1016E00044E102225242934409195346CB1A181C72
:1016F000291C9846FEF760FF071C0198291C7843B7
:1017000082464046FEF79CFF36040B04360C3343FA
:101710009A4509D91B197A1E9C4200D924E19A45A1
:1017200000D821E1023F1B195E4632041743380CF2
:10173000BB46009E009F51463F0C32045B1A59463F
:10174000BA46120C0F043F0C904651467A434F4361
:101750004146414356467043CF19160CBE19B1425B
:1017600002D980277F02C019310C12043604120CF2
:101770004018B618834200D2C4E000D1BEE0191A66
:101780004846861BB145BF417F42CF1BA74200D1CF
:1017900013E1291C381CFEF70FFF01990290414309
:1017A000381C8946291CFEF74BFF330C09041943EA
:1017B00089450CD9029B0919013B8C4200D9FFE0F5
:1017C000894500D8FCE0029F0919023F02974F4665
:1017D000CF1B381C291C0597FEF7EEFE071C01984D
:1017E000291C784381460598FEF72AFF3604090430
:1017F000360C0E43B14509D936197B1EB44200D9C7
:10180000E0E0B14500D8DDE0023F3619029D4946CF
:10181000761A290439430B0457460A0C1B0C404620
:101820004546584355437B437A43EB18070CDB1975
:101830009D4202D980256D0252191D0C00041B0423
:10184000000C52191B18964235D300D1FCE001233D
:101850001943049E994FF519002D00DCA1E04807BB
:1018600009D00F230B40042B05D00B1D8B4289415F
:1018700049428B44191C5A46D20107D5904B5C460D
:10188000049E80271C40FF00A346F5198D4B9D4206
:101890007ADD039C0122224000248B4DA146C1E643
:1018A00080242403474627424CD13C432403240B85
:1018B000009A854DB6E63619481EB4425ED9011C21
:1018C0009642C4D1009E9E42C1D1C2E7031C283B70
:1018D000311C99408B46002188E6301C01F000F94C
:1018E000203072E6283B211C994000228846914610
:1018F00051E6201C01F0F4F820303BE60021B14510
:1019000000D33DE7009F5A46B944B945BF417F42E5
:101910003F19FB18013A9C421ED2984200D97EE042
:1019200000D1B5E0191A93462AE7894500D8ADE6FB
:101930004846464642467708D3074608C0071E4336
:101940008146AAE65846204212D1044324032A1CA9
:10195000240B89465C4D65E6A342E3D1009F4F45C9
:10196000DBD9211A93460BE7171CDDE69B46BCE644
:101970003C432403240B009A534D53E6B24259D8FA
:1019800000D18AE0011C62E75F46C9087B07039E1D
:101990000B437C026D0501229946240B6D0D3240EC
:1019A00040E64A4B049FDB1B382B10DD039C0122D1
:1019B000224000240025A14634E60121494248E79F
:1019C000029304E71F1C21E7019C039441E71F2BAE
:1019D00040DC3F48049F0C1C3A1858469140DC40BC
:1019E000904020430A1C511E8A41011C11435A4653
:1019F000DA40131C480709D00F220A40042A05D0F8
:101A00000A1D8A42894149425B18111C1A0234D5C9
:101A1000039C0122224000240125A14602E6009FEA
:101A200002214942B9448B44B945894149420919C7
:101A3000CB18A4E6009D881E6900A942AD416D4205
:101A40002C19361900913AE7002B00D033E7002417
:101A5000009437E71F4A049C5D46121BD5402A1CA0
:101A6000202B1FD01C4E5F46A3199F403B1C1943DF
:101A70004B1E994111430023BCE75A07C9080A438A
:101A8000039F91465B0201221C0B3A400025C9E5E9
:101A90004E45C4D89346002172E6009F9F42C9D3A9
:101AA000011C0FE70023E2E7802424035F463C4348
:101AB0002403240B019A8946034DB3E5FF0300007C
:101AC000FFFFFFFEFE070000FF07000002FCFFFF14
:101AD0001E040000E2FBFFFF3E040000F0B55F467D
:101AE00056464D464446F0B40D1C041C8046E80F93
:101AF000814618030F03000B3F0B83B084461B483D
:101B0000009749005E00DF0F490D9246760DBB46F7
:101B100081420CD01548864210D00120B14215D028
:101B200003B03CBC90469946A246AB46F0BD009F30
:101B300001202743F4D10D488642EED1604602438E
:101B40000120002AECD10120B142E9D1009B63457C
:101B5000E6D1D045E4D1D94506D00029E0D11C43D7
:101B6000201C441EA041DBE70020D9E7FF0700004E
:101B7000F0B55F4656464D464446F0B4CD0FDE0FF5
:101B8000AC461D032D0BB146374E0F034C00AB4640
:101B90005D0080463F0B640D92466D0DB44232D01D
:101BA000314EB54235D0002C0ED13843414241412F
:101BB000081C002D0BD0002919D1CC452DD065462D
:101BC00068420123184318E0002DF6D1281C59461D
:101BD0000A4353425341002806D1002BEDD06346FF
:101BE00058420123184308E00020002B05D14A4643
:101BF000504250414042012318433CBC9046994614
:101C0000A246AB46F0BD3E1C0643C9D0022040426E
:101C1000F3E75E461643C6D0F8E7AC4207DC0BDAC2
:101C2000614648424841404201231843E5E7664681
:101C3000704201231843E0E75F450AD80ED0002028
:101C40005F45DAD265466842684140420123184345
:101C5000D3E76246504201231843CEE7D045F8D877
:101C60000020D045EED3C8E7FF070000F0B5564688
:101C70004D4644465F46F0B40D1C83B0041C0190F1
:101C8000E80F814618030F03000B3F0B84463548CD
:101C9000009749005E00DF0F490D9246760DB84669
:101CA000814234D02F48864236D0002918D0002EE9
:101CB0001FD1341C67463A4353425341002C1FD076
:101CC0000020002B05D142465042504140420123A2
:101CD000184303B03CBC90469946A246AB46F0BDC3
:101CE0000098044360426041041C002EE2D00028AA
:101CF000E9D1C14515D04F46784201231843E8E7A2
:101D0000002BF6D04B46584201231843E1E7009FD1
:101D100002202743DDD1C5E7674602201743D8D10B
:101D2000C3E7B14204DD4A46504201231843D0E7DD
:101D3000B14207DB00986045E4D80AD0009F00203C
:101D40006745C6D24F467842784140420123184346
:101D5000BFE7019A5245D5D8019A00205245F1D3E8
:101D6000B7E7C046FF070000F0B5564644465F4659
:101D70004D46F0B41F1C0B031B0B9A464B0087B05B
:101D8000041C80465B0DC80F161C02938146002B75
:101D900068D0694B0299994232D08022534652034F
:101DA0001A43D200630F1A439246644AE00089182E
:101DB00080460291002400253B031B0B9B467800C4
:101DC000FB0F321C400D039300D175E05A4B984233
:101DD00069D08022594652030A43730FD2001A4336
:101DE000564B9346C018F200002303994E467140AB
:101DF0001C430F2C00D9A9E0514EA4003459A7462A
:101E000053461C4300D087E00025AA46A846082474
:101E10000225D1E74946022D6CD0032D00D117E2EF
:101E2000012D00D058E10D40EDB20024A946002359
:101E3000A0460020002125030A0D1C052D0B1205CC
:101E4000404B2A43134023435B004C465B08E207A8
:101E5000191C4046114307B03CBC90469946A24627
:101E6000AB46F0BD5346234350D05346002B00D120
:101E700084E1504600F034FE031E272B00DD76E19E
:101E800028210D1A211C083B5246E9409A400D1C9E
:101E90001543221C9A40AA4690462B4B00241B1A3D
:101EA0000293002588E75B461E430323002E9CD146
:101EB000B3460022022398E75B46334321D05846BD
:101EC000002800D14EE100F00BFE272800DD42E1A2
:101ED00028210F1A021C311C083A5B46F940934036
:101EE0000F1C1F43331C9340BB461A1C164B181A79
:101EF00000237AE701230B4000249946A0460E4BAD
:101F000097E70027BB46002201236EE70021042447
:101F10008A46884601254FE70C2403254CE7002517
:101F20008024A9462403A846034B82E7DA4690465C
:101F300003991D1C6FE7C046FF07000001FCFFFF6F
:101F400018D60000FFFF0F800DFCFFFF029F160C4C
:101F5000381804904046070C0004000C1204120CC0
:101F6000031C5343041C3D1C7443554398463B1CBF
:101F700073436419A44644460293230C63449D4270
:101F800004D9029D802464022D1902951D0C03952D
:101F900045462C041B04240C1C1905945C46230C98
:101FA000051C58432404240C8446381C60436543B4
:101FB0005F438146CC44280C6044BB46814502D92E
:101FC00080277F02BB442D04070C2D0C0004401910
:101FD0005546BC462F04E3448446280C3D0C2F1C78
:101FE0005743B8462F1C77434243B94647463F0CF8
:101FF0009144BA46D14446434A4502D9802252020E
:10200000B6184F463A0CB6183A0447463F043F0C00
:10201000B8462F1C67435D434443584365190190FC
:10202000380C2D184244B846AC4204D9019880239C
:102030005B02C0180190039C029F201C6044C019E1
:102040006045A44147466442A4462B043C0499469B
:10205000240C4C44A046D8448018C246E244904226
:102060009241574652429146F219E245BF417F42A2
:102070004B46BC46D845BF41D4187F4263461F43F8
:102080002D0C7F19B24292414C45AD4152426D42F6
:102090001543019E7D19AB19E20D5B02059F1343A9
:1020A00042023A439A46531E9A41C30D101C1843EC
:1020B0006402204380465046C0010DD545460122AA
:1020C0005646049C6B082A401A43F30701341A430E
:1020D000760804949046B246049E634FF319002B91
:1020E00061DD404640070BD00F2244462240042ABF
:1020F00006D04246043242458041404282449046E6
:102100005546ED0107D5594B5646049F80201E4089
:10211000C000B2463B18564A934200DDEAE6444608
:102120005546E2086807104301226C025B050A402D
:102130008046240B5B0D91467BE6DA4690461D1CDB
:1021400069E680242403574627421CD13C432403DC
:10215000240B484B6DE6031C283B311C99408B46F1
:102160000022C3E6301C00F0BBFC2030ADE6283B6B
:10217000211C994000228A4690468EE6201C00F0E1
:10218000AFFC203078E65846204207D1044303993B
:102190002403240B89469046364B4AE63C432403ED
:1021A000240B344B45E6344B049E9B1B382B06DD39
:1021B00001230B4000249946A046002339E61F2B3B
:1021C00025DC049C2D4D4646601952464446864007
:1021D000DC4082405746301C2243DF40441EA04171
:1021E00002433B1C540709D00F201040042805D09F
:1021F000101D9042924152429B18021C1D021AD59A
:1022000001230B4000249946A046012311E61C48F7
:10221000049C5546001BC540281C202B16D0194E87
:102220005746A21997403A1C43461A43531E9A41F7
:1022300002430023D6E758075B02D2081C0B012398
:102240000B401043994680460023F2E50022EBE75D
:102250008024240350460123044319402403240B03
:102260008946044BE5E5C046FF030000FFFFFFFE83
:10227000FE070000FF07000002FCFFFF1E04000035
:10228000E2FBFFFF3E040000F8B55F4656464446B9
:102290004D46F0B40C034D00CF0F610A440F2143AB
:1022A000C4001803DE0F8046B44646465800760A3E
:1022B000530F3343D600D14A6D0DBA46400DB34695
:1022C000904200D1F5E0624601267240944667458F
:1022D00000D1ABE02F1A002F00DC11E100283ED125
:1022E0005846184300D0F1E0600700D197E00F2373
:1022F0002340042B00D122E1221DA242A4416442CA
:10230000802309191B04012750460B400740141C69
:10231000002B00D179E0B94B01359D4200D10BE192
:10232000B74BE40819404807490204430B0B00204F
:1023300000211B031A0B0B0D6D051B0513436A08C7
:10234000B04DFF071D4015436D006D08291C394332
:10235000201C3CBC90469946A246AB46F8BDA74817
:102360008542C1D0802000040343382F00DDFDE00A
:102370001F2F00DD31E12020C01B1A1C5E46824069
:10238000FE40324394465A468240101C421E904101
:10239000FB40624602431F1CA21A9442A4416442BD
:1023A000C91B091B141C0A029ED549024F0A002FA3
:1023B00000D1D6E0381C00F093FB021C083A1F2A1B
:1023C00000DDC3E02821231C091A9740CB401F439E
:1023D0009440954200DDC0E0551B691C1F2900DDBB
:1023E000EAE01F22551B3B1C221CAB40CA40AC40FC
:1023F000651EAC411343CF401C43391C002573E7D5
:1024000080217E4D0027C90300247C4B4807E40847
:102410000443C9089D4250D009030B0B87E7802372
:102420001B04012752460B40174071E72A1A9446B5
:10243000002A00DCA1E0002854D07048854200D179
:1024400052E78020000403436046382800DD0EE197
:102450001F2800DD57E162462020801A1E1C86409E
:10246000B1465E46D6404A4632435E468640904676
:10247000301C421E9041424602436046C34012193E
:10248000A242A441644259180919141C080200D43C
:102490002AE75A4B01359D4200D131E1584B600883
:1024A0001940012323401C1C0443CB071C4349084B
:1024B0001AE71E4300D00AE705E7231C0B433BD075
:1024C00080231B030B431B031B0B30E7013F002F33
:1024D0006DD15E46A21B9442A4416442C91A091BF5
:1024E000141C60E75846184300D1FDE601267642E9
:1024F000B4446046002800D0D0E05E463219BFE701
:10250000002F00D080E0681C4005400D012800DC51
:10251000E8E05A46A21A9442BF41C81A7F42C71B3C
:102520003E0200D498E05846041BA3459241591A34
:1025300052428F1AE2463AE700230024F7E680234E
:102540001B04012756460B403740E1E6271C28387C
:1025500087400024954200DC3EE72949AD1A394006
:10256000C2E6201C00F0BCFA203026E75A461A4387
:10257000531E9A41D2B200270EE7002A00D0DEE0B7
:10258000681C4605760D012E00DC90E01B4DA8422C
:1025900000D1F5E05E463219A242A44164425918C6
:1025A0000919CC07520814434908051C9CE6134836
:1025B000854200D0D9E697E62B1C1F3B3E1CDE402F
:1025C000331C20296FD03F22551BAF403C43601E77
:1025D00084411C430021002586E6381C20381E1C3F
:1025E000C640301C202F60D04022D71BBB405A462B
:1025F0001A43531E9A4102430027CDE6FF0700000D
:10260000FFFF7FFFFFFF0F80002D37D0B64DA842A0
:1026100000D18FE080252D047F422943382F00DD33
:10262000A8E01F2F00DD24E12025ED1B0E1CAE408D
:10263000B046261CFE404246AC401643651EAC41E7
:102640003443F9405A46141BA34592415B1A524247
:10265000991A051CE246A6E6131C3B43141C002BEA
:1026600000D0A4E60027002100250024CDE65A462C
:102670001A43531E9A41D2B2002300E70D1C254392
:1026800058D0FF43002F51D15A46141BA345924105
:10269000591A5242891A051CE24684E6924885423C
:1026A00000D0D1E620E6002790E700239FE7081C32
:1026B0002043002D00D0C2E0002800D1EFE05846B2
:1026C000184300D110E658460219A242A4416442C0
:1026D00059180919141C0A0200D405E6834B012578
:1026E000194001E6081C2043002D38D100286FD185
:1026F0005946194303D0191C5C46E246F4E500270D
:102700000021002481E6604620381A1CC24066463B
:10271000101C202E00D1AAE04022921B93405A4662
:102720001A43531E9A4102430023A8E66E4DA84265
:1027300000D073E7191C5C46051CE246D4E5002D69
:1027400022D10D1C254376D0D543002D70D15C4499
:102750005C459241591852428918051C96E600289A
:102760004CD15946194300D14AE6191C5C46E24651
:102770005D4DB9E50C43611E8C41E4B2002161E777
:10278000051C0021002440E6574DA84253D0554275
:10279000802216043143382D7BDC1F2D00DD8CE0B8
:1027A0002022561B0A1CB446B240261CEE4032437F
:1027B000904662469440661EB44142461443E94046
:1027C0005C445C459241CB1852429918051C5DE669
:1027D0005846184300D187E55E46A71BBC4292418C
:1027E000C81A5242801A060260D55846041BA345F7
:1027F0009241591A5242891AE24675E558461843E1
:1028000033D04807E40804438020C908000301428C
:1028100008D0DD08054205D15946CA085C071443B3
:10282000291CE246630FC9001943E4002E4D5BE505
:102830002D4A9042AFD1191C5C46051C54E5002876
:1028400030D05846184310D080254807E408C908FE
:102850002D0304432942E5D0D8082842E2D15D4641
:10286000EA085C071443011CDCE71F4D3CE500232C
:1028700055E73D1C203D0E1CEE40351C202F2ED070
:102880004026F71BB9400C43611E8C412C430021AC
:10289000D8E60C43611E8C41E4B2002190E7191C7C
:1028A0005C4621E5191C5C460F4D1DE5031C3B43AE
:1028B00000D124E7011C3C1C16E52026764276193F
:1028C0000A1CF2409046202D0BD04026751BA940D3
:1028D0000C43611E8C4145462C43002170E70021CA
:1028E000D1E70021F4E7C046FF070000FFFF7FFFAC
:1028F00070B50B1C124C09030E0B5900021C490D3C
:10290000DD0F0020A14211DD0E4881420FDC802046
:10291000400306430C48401A1F280BDD0B4A521A8D
:10292000D640321C5042002D00D1101C70BD084B07
:10293000E818FBE7074BC240C9188E403243F1E765
:10294000FE0300001D040000330400001304000017
:10295000FFFFFF7FEDFBFFFFF8B5041E31D0C70F6F
:1029600000D04442201C00F0BBF8184D2D1A0A2854
:1029700019DD0B38844024036D05240B6D0D3A1CC2
:102980000026002000210B0D2403240B1B052343EC
:102990000F4C2D051C402C4364006408D307211CF8
:1029A000301C1943F8BD061C1536231CB3401E1CF1
:1029B0000B23181AC44024036D05240B6D0D3A1C1B
:1029C000DFE70022002500240026DAE71E040000CD
:1029D000FFFF0F8010B5041E28D000F081F8154AC3
:1029E000121A0A2815DD0B38844024035205240BE3
:1029F000520D0023002000212403181C0B0D240B72
:102A00001B0523430C4C12051C4014436400610851
:102A100010BD031C1533211C99400B1C0B21081AF7
:102A2000C44024035205240B520DE3E70022002486
:102A30000023DFE71E040000FFFF0F8043001B0E92
:102A40005A1C4102D2B270B54C0AC50F012A17DDDB
:102A5000E02292006407090B9818002200231E0D43
:102A6000221C34050C431B4940054008214001430A
:102A700049004908ED070B1C2B43101C191C70BDA5
:102A8000002B15D1002C1CD0201C00F029F80A289E
:102A90001ADC0B21091A231CCB40191C031C15330B
:102AA0009C400D4B0903181A4005090B400DD4E753
:102AB000002C03D06407090B0848CEE70748002123
:102AC000CBE700200021C8E7011C0B398C40211CFA
:102AD0000024E6E7FFFF0F8089030000FF070000E6
:102AE0001C2101231B04984201D3000C10391B0A3E
:102AF000984201D3000A08391B09984201D3000902
:102B0000043902A2105C40187047C0460403020258
:102B100001010101000000000000000000000000B1
:102B200038B50E4B0C4A041C0D1CFDF729FE00287D
:102B300004D1201C291CFFF7DBFE38BD074B064AD9
:102B4000201C291CFFF7A0FBFFF7D2FE80231B06E9
:102B5000C018F2E7C046C046000000000000E04197
:102B6000F0B544465F4656464D46F0B41C1C85B051
:102B7000002900DADBE00F1C0021061C8A46101C2D
:102B8000191C002C00DAC9E00196009089468046A5
:102B9000002951D1B84200D871E0FFF7A1FF002809
:102BA00009D020234546311C1B1A85408740D94057
:102BB000A8460F4386404246150C13041B0C291CE3
:102BC000381C9B46FDF7F8FC5B464343041C291C5C
:102BD000381C9946FDF734FD330C08041843814531
:102BE00009D94044631E804500D978E1814500D869
:102BF00075E1023C40444946411A8946081C291C9B
:102C0000FDF7DAFC5A464243071C291C4846934606
:102C1000FDF716FD36040904360C0E43B34507D9FB
:102C200046447B1EB04502D8023FB34500D81F1C66
:102C300024042743002403E0B94211D900240027CB
:102C40005246381C211C002A03D03B1C002158424C
:102C5000A14105B03CBC90469946A246AB46F0BDAA
:102C6000081CFFF73DFF041E00D0BFE0B94500D2AD
:102C700042E1019D0099071C8D424741E0E7002891
:102C800004D101200021FDF797FC80464046FFF764
:102C900027FF002852D1414644460B043C1B1B0C25
:102CA000A3460D0C00930124291C5846FDF784FC13
:102CB000009F81464743291C5846FDF7C1FC330C51
:102CC000090419438F4208D94B464144013B8845CA
:102CD00002D88F4200D91AE19946C91B8B46081CBD
:102CE000291CFDF769FC009B291C4343071C58461F
:102CF0000093FDF7A5FC3604009D0904360C0E4335
:102D0000B54207D946447B1EB04502D8023FB542C2
:102D100000D81F1C49460E04374391E75246D24360
:102D2000031C0C1C924600215842A1412CE70027AD
:102D300046428F41012149428A4620E720231B1A3F
:102D40004246351C82403C1CDD40DC4087402B1C49
:102D5000150C3B43291C8640201C00931704904609
:102D6000FDF72AFC3F0C011C794381468B46201C51
:102D7000291CFDF765FC009C0904230C19438B45B5
:102D80000CD94B464144013B884500D9BDE08B45F9
:102D900000D8BAE002225242914441445C460C1BE6
:102DA000201C291C0194FDF707FC391C4143041C1D
:102DB0008B460198291CFDF743FC009A0904130473
:102DC0001B0C19438B4509D94144631E884500D922
:102DD00097E08B4500D894E0023C41445B46CB1A17
:102DE00049469B460B041C4300975DE7009D20234A
:102DF0001B1A4A468240DD401543391C009AD940CF
:102E000082408846311C0092D9403A1C82400B1CFB
:102E1000134301932F0C2B041B0C391C40460293C7
:102E2000FDF7CAFB029A81464243391C404693464D
:102E3000FDF706FC019A0904130C19438B450AD9C6
:102E40004B464919013B8D425DD88B455BD9022326
:102E50005B42994449195A468A1A101C391C03923C
:102E6000FDF7AAFB029B80464343391C03989B460F
:102E7000FDF7E6FB019A090413041B0C19438B456B
:102E80000AD943464919013B8D4238D88B4536D97A
:102E900002235B42984449195D464D1BAB464946A7
:102EA000009D0F04424617432A04120C3B042D0CCC
:102EB0001B0C380C111C594342436B436843D31815
:102EC0000D0C5B198C469A4202D98022520280185E
:102ED0001D0C401983450CD303D00024B0E61C1C04
:102EE00089E665462A041B04120C9B18A6409E42E4
:102EF000F3D2013F0024A3E600240127A0E6984670
:102F0000CAE71C1C6AE79946A5E7994646E70222EC
:102F1000524291444144E0E6F0B55F4656464D4684
:102F20004446F0B40D1C85B0061C924698460290AB
:102F3000019103921F1C141C8346A946002B59D1F2
:102F4000AA4269D9101CFFF7CBFD00280AD0202324
:102F50001B1A311CD94085400B1C2B4386408440F2
:102F60009946B346250C23041B0C291C4846984659
:102F7000FDF722FB4646071C4643291C4846FDF741
:102F80005FFB5A460904130C19438E4209D90919EB
:102F90007B1E8C4200D957E18E4200D854E1023F9B
:102FA0000919891B8946081C291CFDF705FB4346A6
:102FB0004343061C291C48469846FDF741FB5A46E8
:102FC000130409041B0C1943884508D90919731EF9
:102FD0008C4200D936E1023E884500D832E13804FF
:102FE00030430027391C05B03CBC90469946A246A8
:102FF000AB46F0BD019A934262D8181CFFF770FDF2
:10300000041E60D1019B9F4200D22CE1029F0399D4
:103010008F4260410027E5E7002A04D1012000210A
:10302000FDF7CAFA041C201CFFF75AFD002800D047
:10303000B9E023042D1B1B0CA946260C984601273A
:10304000311C4846FDF7B8FA41464143051C8A4603
:103050004846311CFDF7F4FA5A460804130C18438D
:10306000824507D900196B1E844202D8824500D9D7
:1030700010E11D1C5346C31A181C311C9A46FDF75B
:103080009BFA41464143814688465046311CFDF734
:10309000D7FA5A46130409041B0C194388450BD967
:1030A0004B460919013B8C4200D9CFE0884500D836
:1030B000CCE002235B42994428044946084391E747
:1030C000002700208EE720231B1A424657468240E5
:1030D000DF401743524682400192321CDA40291CDD
:1030E000D9408540131C2B4302933D0C3B041B0C21
:1030F0008846081C291C9A46FDF75EFA534643434E
:103100008146291C40469B46FDF79AFA029A09041B
:10311000130C19438B4506D94B46C919013B8F4205
:1031200000D8ABE099465A468A1A101C291C9346CF
:10313000FDF742FA53464343291C804658469A46B7
:10314000FDF77EFA029A090415042D0C29438A45DD
:1031500006D94346C919013B8F4200D886E09846FC
:103160005746CF1BBA464946019F080442461043C2
:103170003D042D0C03043F0C1B0C020C291C59436D
:1031800055437B437A43EB180F0CDB198C469D4269
:1031900002D980277F02D2191D0C521992455FD3A4
:1031A00056D000271EE720231B1A311C2F1CD940A4
:1031B000DF4085400B1C84402B4386400193B3467F
:1031C0002304260C1B0C381C311C9846FDF7F4F91F
:1031D00042464243051C311C381C9146FDF730FA2B
:1031E000019F09043B0C1943894507D909196B1E36
:1031F0008C424DD889454BD9023D09194A468A1A55
:10320000101C311C9246FDF7D7F943464343071C77
:10321000311C50469946FDF713FA019A090413042C
:103220001B0C1943894507D909197B1E8C422DD8DF
:1032300089452BD9023F09194B46CB1A2D049946D3
:103240002F43FDE61E1CCAE61F1CAAE6994633E77B
:1032500061460A041B04120C9B18A6409E42A0D291
:1032600001380027BEE600270120BBE68A4500D8CA
:1032700075E702235B429844C91971E78B4500D872
:1032800050E702235B429944C9194CE71F1CD3E75E
:103290001D1CB3E7023D0019ECE6C04680B582B0C4
:1032A00000AF78600A1CFB1C1A70FB1C1B78002BFB
:1032B00008D07B68DB78DBB208221343DAB27B6884
:1032C000DA7007E07B68DB78DBB208229343DAB27E
:1032D0007B68DA70BD4602B080BDC04680B582B062
:1032E00000AF78600A1CFB1C1A70FB1C1B78002BBB
:1032F00008D07B68DB78DBB204221343DAB27B6848
:10330000DA7007E07B68DB78DBB204229343DAB241
:103310007B68DA70BD4602B080BDC04680B582B021
:1033200000AF78600A1CFB1C1A70FB1C1B78002B7A
:1033300007D07B689B68802212031A437B689A60DF
:1033400005E07B689A68034B1A407B689A60BD462B
:1033500002B080BDFFFFF7FF80B582B000AF78609C
:103360000A1CFB1C1A70FB1C1B78002B07D07B6807
:103370009B688022D2021A437B689A6005E07B68D2
:103380009A68034B1A407B689A60BD4602B080BDC4
:10339000FFFFFBFF80B588B000AFF860B9603B600D
:1033A000FB1D1A70344B1B78002B01D001235FE00A
:1033B000314BFA1D12781A70FB1D1B78012B02D0BD
:1033C000022B29D051E0FA682B4B5A603B1C183372
:1033D000181C06F041FC3B1C1833BA681A60264BD7
:1033E00059683A1C18323B68081C111C1A1C06F05C
:1033F0007DFB214B5B68181C0121FFF74FFF1E4B23
:103400005B68181C0121FFF769FF1B4B1B4A9A6080
:10341000194B1B4ADA602AE0FA68174B5A603B1CCA
:103420001033181C05F05AF93B1C1033BA681A60A7
:10343000114B59683A1C10323B68081C111C1A1CAD
:1034400005F024F80C4B5B68181C0121FFF766FFA0
:10345000094B5B68181C0121FFF77EFF064B094AE8
:103460009A60054B084ADA6001E0042300E000237B
:10347000181CBD4608B080BDF4E0FF1FCD9C0000C5
:10348000099D0000C1870000FD8700000FB480B5D2
:1034900082B000AF0D4B1B78002B02D101235B42A1
:1034A0000DE03B1C14333B6009493A693B68081C3A
:1034B000111C1A1C00F0B8FA031C7B607B68181CF6
:1034C000BD4602B080BC08BC04B01847F4E0FF1F42
:1034D000D534000090B583B000AF78600A4B1B78FC
:1034E000002B02D101235B4209E0074B9C68064B8D
:1034F0005A683B1D101C191C0122A0470123181CEF
:10350000BD4603B090BDC046F4E0FF1F90B583B048
:1035100000AF0B4B1B78002B02D101235B420BE069
:10352000074BDC68064B5A68FB1D101C191C012256
:10353000A047FB1D1B785BB2181CBD4603B090BDB5
:10354000F4E0FF1F80B586B000AFB9607A603B60E1
:103550003B1C0F33021C1A70BB687B610EE03B1CE6
:103560000F3300229A563B6A101C98473B681B6831
:103570005A1C3B681A607B6901337B617A697B68FE
:103580009A42ECDBBD4606B080BDC046F0B59BB0AC
:1035900000AFF862B9627A623B6200237B64FB6A27
:1035A0003B643B6C5A1C3A6400221A707B6A002B05
:1035B00064D0BB6A5C681B683B667C663B6E7A6E57
:1035C000134307D13B6C30221A707B6C01337B6450
:1035D0007B6CC5E04DE03B6ABB61DB17FB61386E7D
:1035E000796EBA69FB69FDF70FF9031C0C1CBB630C
:1035F000FC633B6A3B61DB177B6138697969BA6BB5
:10360000FB6BFDF745F9031C0C1C396E7A6E0D1C23
:10361000161CED1AA6412B1C341CBB65FC65FB6D0A
:10362000002B10DABB6DFC6DBB64FC64BB6CFC6CE6
:10363000302100220D1C161CED1AA6412B1C341C37
:10364000BB65FC6507E0B96DFA6D302300245B189B
:103650005441BB65FC65BB6BFC6B3B667C663A6C9E
:10366000531C3B64BB6DFC6DDBB213707B6C013390
:103670007B643B6E7A6E1343ADD170E0BB6A5C68CD
:103680001B683B657C653B6D7A6D134307D13B6CD2
:1036900030221A707B6C01337B647B6C60E05AE0F3
:1036A0003B6A1D1CDB171E1C386D796D2A1C331CF0
:1036B000FDF7CEF8031C0C1C3B637C633B6ABB60CC
:1036C000DB17FB60B868F9683A6B7B6BFDF7E0F8D5
:1036D000031C0C1C396D7A6D39607A6039687A6820
:1036E000C91AA2410B1C141CBB64FC64FB6C002BAC
:1036F0000ED1FB6C002B02D1BB6C092B08D8B96C26
:10370000FA6C302300245B185441BB64FC6414E061
:103710003B1C80331B78002B02D04123002401E0A6
:1037200061230024B96CFA6CC91862410A235B4218
:10373000DC175B185441BB64FC643B6B7C6B3B65E2
:103740007C653A6C531C3B64BB6CFC6CDBB2137045
:103750007B6C01337B643B6D7A6D1343A0D17B6C32
:10376000181CBD461BB0F0BDF0B599B000AFF860B5
:10377000B9607A603B600023FB63FB68BB63BB6B93
:103780005A1CBA6300221A70BB681A685B683A63F5
:103790007B63386B796B9B4B994AFCF7CDFF031C1D
:1037A000002B07D0BB6B30221A70FB6B0133FB631D
:1037B000FB6B1EE13A6B7B6B3E1C1036101C191C18
:1037C000321C06F0D7FB021C0B1C3A647B640023FE
:1037D0007B650FE07868FFF7BFF8021C0B1C386CA4
:1037E000796CFEF7C1FA021C0B1C3A647B647B6D9A
:1037F00001337B657A6D3B689A42EBD3386B796B0A
:10380000804B7F4AFCF7BCFF031C002B2BD0386C8D
:10381000796C7D4A7D4BFDF71BFB021C0B1CBA64C7
:10382000FB643868FFF7D6F8021C0B1C784879490E
:1038300006F0DEFB021C0B1C101C191CBA6CFB6C86
:10384000FCF78AFF031C002B00D136E03A697B6944
:10385000101C191C704A714BFDF7FAFA021C0B1C64
:103860003A617B6129E0386C796C674A674BFEF7F7
:103870000BFD021C0B1CBA64FB643868FFF7AAF846
:10388000021C0B1C6648674906F0B2FB021C0B1CAD
:10389000101C191CBA6CFB6CFCF772FF031C002B8C
:1038A0000BD03A697B69101C191C5B4A5B4BFEF715
:1038B000EBFC021C0B1C3A617B6100237B654FE033
:1038C0007868FFF749F8021C0B1CB86CF96CFDF71F
:1038D000E1FD021C0B1CBA62FB62B86AF96AFCF7D4
:1038E000FBFF021C0B1C79680C1CC9170D1C101C5B
:1038F000191C221C2B1CFCF7CBFF021C0B1C101CE0
:10390000191CFDF72DF8021C0B1CB86CF96CFEF7A6
:10391000BBFC021C0B1C3A627B62386A796AFEF7B8
:10392000E7FF031CBB65BB6D002B06DABB6DFB61BB
:10393000FB693022D31ABB6502E0BB6D3033BB6537
:10394000BA6AFB6ABA64FB64BB6B5A1CBA63BA6D91
:10395000D2B21A70FB6B0133FB637B6D01337B6565
:103960007A6D3B689A42ABD3BB6B5A1CBA632E226A
:103970001A70FB6B0133FB633B697C69181C211CCB
:10398000FEF7B6FF031CFB65FB6D002B08D1BB6B7C
:103990005A1CBA6330221A70FB6B0133FB6327E0B9
:1039A00023E0F86D7968FCF755FE031CBB61BB6929
:1039B0007A685343FA6DD31ABB65BB6D002B06DAE8
:1039C000BB6DFB61FB693022D31ABB6502E0BB6DA6
:1039D0003033BB65BB69FB65BB6B5A1CBA63BA6D00
:1039E000D2B21A70FB6B0133FB63FB6D002BD8D195
:1039F000FB6B181CBD4619B0F0BDC046C046C046A2
:103A00000000000000000000000000000000E03F97
:103A10000000000000002440000000000000F03F13
:103A200000000000000024C0B0B5B0B002AFF863E1
:103A3000B9637A630023B021C9190B600023AC225B
:103A4000D21913600023FB653A1C9A3200231370CD
:103A500000230024BB64FC64BB6BB424E419236022
:103A600000F0FAFD8821C9190B68252B0AD088239C
:103A7000DB191A68FB6B101C9847FB6D0133FB6563
:103A800000F0E3FD3A1C9B320123137000239424C1
:103A9000E41923600023A821C9190B604CE0B4226B
:103AA000D21913680133B424E4192360B421C9196D
:103AB0000B681B785BB2203B102B31D89A00D54B9A
:103AC000D3181B689F469423DB191A6801231343FC
:103AD0009424E41923602FE09421C9190A68022371
:103AE00013439422D219136026E09423DB191A6839
:103AF000042313439424E41923601DE09421C9197D
:103B00000A68082313439422D219136014E0942303
:103B1000DB191A68102313439424E41923600BE083
:103B2000B421C9190B68013BB422D21913600123D7
:103B3000A824E4192360C046A821C9190B68002BEA
:103B4000ADD00023A422D21913600023A824E419C5
:103B5000236034E0B421C9190B680133B422D219AF
:103B60001360B424E41923681B785BB28821C91957
:103B70000B608822D21913682F2B15DD8824E419D5
:103B80002368392B10DCA421C9190A68131C9B0077
:103B90009B185B001A1C8824E4192368D318303B57
:103BA000A421C9190B600AE0B422D2191368013BA1
:103BB000B424E41923600123A821C9190B60A822A9
:103BC000D2191368002BC5D00623A024E419236062
:103BD000B421C9190B680133B422D2191360B4247B
:103BE000E41923681B785BB22E2B43D10023A0215C
:103BF000C9190B600023A822D219136034E0B42441
:103C0000E41923680133B421C9190B60B422D21915
:103C100013681B785BB28824E41923608821C919D2
:103C20000B682F2B15DD8822D2191368392B10DC75
:103C3000A023DB191A68131C9B009B185B001A1C3D
:103C40008824E4192368D318303BA021C9190B60DC
:103C50000AE0B422D2191368013BB424E4192360AA
:103C60000123A821C9190B60A822D2191368002BBF
:103C7000C5D006E0B424E4192368013BB421C91976
:103C80000B60B422D21913680133B424E419236001
:103C9000B421C9190B681B785BB2682B02D06C2B5E
:103CA00027D04EE0B422D21913680133B424E419AA
:103CB0002360B421C9190B681B785BB2682B0FD045
:103CC0009423DB191A68402313439424E4192360D6
:103CD000B421C9190B68013BB422D219136038E032
:103CE0009423DB191A68202313439424E4192360D6
:103CF0002FE0B421C9190B680133B422D219136023
:103D0000B424E41923681B785BB26C2B0FD0942188
:103D1000C9190A68802313439422D2191360B4246A
:103D2000E4192368013BB421C9190B6011E0942305
:103D3000DB191A6880235B0013439424E419236081
:103D400007E0B421C9190B68013BB422D2191360F2
:103D5000C046B424E41923680133B421C9190B60A7
:103D6000B422D21913681B785BB28824E41923604B
:103D70008821C9190B68642B2ED08822D2191368A8
:103D8000692B29D08824E4192368662B24D0882144
:103D9000C9190B68462B1FD08822D2191368782BBB
:103DA0001AD08824E4192368582B15D08821C91902
:103DB0000B686F2B10D08822D2191368622B0BD09E
:103DC0008824E4192368702B06D08821C9190B6850
:103DD000752B01D000F0B9FB8822D2191368642B2F
:103DE00005D08824E4192368692B00D0E0E09421F1
:103DF000C9190A6880235B0013400DD07B6BDA1D64
:103E000007239A43131C08337B63136854683B658C
:103E10007C650CE058D600007A6B131D7B63136839
:103E2000BB62DB17FB62BA6AFB6A3A657B65391CC9
:103E300060313A1C50323B1C9B331B780093081CAA
:103E4000111C01220A23FFF7A1FB031CAC24E41977
:103E500023603A1C6032AC21C9190B68D318B02218
:103E6000D21913603B6D7C6D002C0BDA2D2390244E
:103E7000E4192360AC21C9190B680133AC22D219B3
:103E8000136027E09423DB191A68022313400BD038
:103E90002B239024E4192360AC21C9190B6801334A
:103EA000AC22D219136015E09423DB191A6804239D
:103EB00013400BD020239024E4192360AC21C919AE
:103EC0000B680133AC22D219136003E00023902465
:103ED000E419236000238C21C9190B609423DB199A
:103EE0001A680823134028D09024E4192368002B73
:103EF00008D09021C9190A68FB6B101C9847FB6D0C
:103F00000133FB6501238C22D2191360A423DB1932
:103F10001D68AC24E41922683C1C5C34FB6B0093E4
:103F20003020111C2A1C231CFFF70CFBA421C919EB
:103F30000B68AC22D219136027E09423DB191A68AE
:103F40000123134021D1A424E4192568AC21C91907
:103F50000A683C1C5C34FB6B00932020111C2A1C5B
:103F6000231CFFF7EFFA9022D2191368002B08D018
:103F70009023DB191A68FB6B101C9847FB6D01330B
:103F8000FB6501238C24E41923608C21C9190B687B
:103F9000002B0DD19022D2191368002B08D090234A
:103FA000DB191A68FB6B101C9847FB6D0133FB652E
:103FB0008824E4192368662B05D08821C9190B6869
:103FC000462B00D0D1E07B6BDA1D07239A43131CEC
:103FD00008337B63136854683B647C643A1C60322A
:103FE0003B1C4033A021C9190C68101C191C0A2263
:103FF000231CFFF7B9FB031CAC22D21913603A1C37
:104000006032AC24E4192368D318B021C9190B60BD
:104010003B6C7C6C181C211CC44BC34AFCF792FB04
:10402000031C002B0BD02D239022D2191360AC243B
:10403000E41923680133AC21C9190B6027E09423EC
:10404000DB191A68022313400BD02B239024E419A8
:104050002360AC21C9190B680133AC22D21913605B
:1040600015E09423DB191A68042313400BD0202396
:104070009024E4192360AC21C9190B680133AC22E8
:10408000D219136003E000239024E4192360002375
:104090008C21C9190B609423DB191A68082313407B
:1040A00028D09024E4192368002B08D09021C91946
:1040B0000A68FB6B101C9847FB6D0133FB650123FD
:1040C0008C22D2191360A423DB191D68AC24E419D7
:1040D00022683C1C5C34FB6B00933020111C2A1CB2
:1040E000231CFFF72FFAA421C9190B68AC22D2199F
:1040F000136027E09423DB191A680123134021D1B0
:10410000A424E4192568AC21C9190A683C1C5C3454
:10411000FB6B00932020111C2A1C231CFFF712FAB2
:104120009022D2191368002B08D09023DB191A684B
:10413000FB6B101C9847FB6D0133FB6501238C243E
:10414000E41923608C21C9190B68002B0DD1902232
:10415000D2191368002B08D09023DB191A68FB6B67
:10416000101C9847FB6D0133FB658824E419236814
:10417000582B05D08821C9190B68782B00D0E5E0B1
:104180008822D2191368782B03D13A1C9B32002362
:1041900013709423DB191A6880235B0013400BD043
:1041A0007B6BDA1D07239A43131C08337B63136868
:1041B0005468BB64FC640AE07A6B131D7B6313686C
:1041C0003B6200237B62396A7A6AB964FA64391CFB
:1041D00060313A1C48323B1C9B331B780093081C0F
:1041E000111C00221023FFF7D1F9031CAC22D219B5
:1041F00013603A1C6032AC24E4192368D318B02150
:10420000C9190B6000238C22D21913609423DB1987
:104210001A680823134031D09424E419226810232B
:10422000134014D0FB6B302098473B1C9B331B780A
:10423000002B01D0582200E07822FB6B101C98471D
:10424000FB6D0233FB6501238C21C9190B60A4228D
:10425000D2191568AC23DB191A683C1C5C34FB6B63
:1042600000933020111C2A1C231CFFF76BF9A42497
:10427000E4192368AC21C9190B603DE09423DB19D4
:104280001A680123134037D19424E41922681023BB
:10429000134006D0AC21C9190B680233AC22D219E5
:1042A0001360A423DB191D68AC24E41922683C1CAC
:1042B0005C34FB6B00932020111C2A1C231CFFF78D
:1042C00041F99421C9190A681023134014D0FB6BDB
:1042D000302098473B1C9B331B78002B01D0582281
:1042E00000E07822FB6B101C9847FB6D0233FB65E6
:1042F00001238C22D21913609423DB191A6810232E
:10430000134023D08C24E4192368002B1ED1FB6BAF
:10431000302098473B1C9B331B78002B08D0582239
:1043200007E0C046C046C046000000000000000094
:104330007822FB6B101C9847FB6D0233FB65AC21A8
:10434000C9190B680233AC22D21913608824E4190E
:1043500023686F2B0ED17A6B131D7B631368BB61CF
:104360000023FB61B969FA69B964FA643A1C9A32AC
:10437000082313708822D2191368622B17D17A6B25
:10438000131D7B6313683B6100237B613B697C6980
:10439000BB64FC643A1C9A32022313703A1C6032EC
:1043A000AC24E4192368D318B021C9190B60882202
:1043B000D2191368702B17D17A6B131D7B631368A6
:1043C000BB600023FB60BB68FC68BB64FC643A1CF8
:1043D0009A32102313703A1C6032AC24E41923681B
:1043E000D318B021C9190B608822D2191368752B14
:1043F00017D17A6B131D7B6313683B6000237B60CE
:104400003B687C68BB64FC643A1C9A320A231370D4
:104410003A1C6032AC24E4192368D318B021C919BE
:104420000B608822D21913686F2B0ED08824E419F0
:104430002368622B09D08821C9190B68702B04D01E
:104440008822D2191368752B51D13B1C9A331C78E2
:10445000391C60313A1C48323B1C9B331B7800935B
:10446000081C111C0022231CFFF790F8031CAC242D
:10447000E41923603A1C6032AC21C9190B68D318C7
:10448000B022D21913609423DB191A680823134051
:1044900016D0A424E4192568AC21C9190A683C1C6B
:1044A0005C34FB6B00933020111C2A1C231CFFF78B
:1044B00049F8A422D2191368AC24E419236016E049
:1044C0009421C9190A680123134010D1A422D219DA
:1044D0001568AC23DB191A683C1C5C34FB6B009339
:1044E0002020111C2A1C231CFFF72CF80FE00EE0E3
:1044F000B024E4192268531EB021C9190B60137847
:104500005AB2FB6B101C9847FB6D0133FB65B02260
:10451000D21913681B78002BEAD19423DB191A688F
:104520000123134010D0A424E4192568AC21C91933
:104530000A683C1C5C34FB6B00932020111C2A1C75
:10454000231CFEF7FFFF80E07FE08822D21913686A
:10455000632B12D17A6B131D7B631368DBB25BB2E2
:104560008424E41923608421C9190A68FB6B101C98
:104570009847FB6D0133FB6567E08822D219136809
:10458000732B59D17A6B131D7B6313689C24E41938
:1045900023609C21C9190B68002B56D09C22D2198C
:1045A0001368181C06F02DFF031CAC24E4192360CB
:1045B0009421C9190A680123134010D1A422D219E9
:1045C0001568AC23DB191A683C1C5C34FB6B009348
:1045D0002020111C2A1C231CFEF7B4FF0FE00EE064
:1045E0009C24E4192268531C9C21C9190B60137880
:1045F0005AB2FB6B101C9847FB6D0133FB659C2284
:10460000D21913681B78002BEAD19423DB191A689E
:104610000123134019D0A424E4192568AC21C91939
:104620000A683C1C5C34FB6B00932020111C2A1C84
:10463000231CFEF787FF08E08823DB191A68FB6B51
:10464000101C9847FB6D0133FB65B424E419236803
:104650000133B421C9190B60B422D21913681B7835
:104660005BB28824E41923608821C9190B68002BE8
:1046700001D0FFF7F7F9FB6D181CBD462EB0B0BD99
:1046800080B500AF0A4B9B78DBB21A1C082313409D
:1046900007D0074B064A9278D2B208210A43D2B219
:1046A0009A70044A88235B010021D150BD4680BD29
:1046B00000D007400070044080B582B000AF786041
:1046C0000A1CFB1C1A70074B7A689200D3581A69AF
:1046D000FB1C1B78DA4001231340181CBD4602B0B6
:1046E00080BDC0469CD6000080B584B000AFBA60E3
:1046F0007B603B1C0F33021C1A703B1C0E330A1CE0
:104700001A703B1C0F331B78002B04D03B1C0F335B
:104710001B78182B06D920488D2359001F4A204B9F
:1047200003F048FD3B1C0E331B780C2B07D91A48AD
:104730001C23191CFF31194A1A4B03F03BFD7B68FF
:10474000002B06D114488E235900144A164B03F04F
:1047500031FD3B1C0E331B780233DAB27B681A70D2
:104760007B6801333A1C0F3212781A703B1C0E33EF
:104770001B78002B0DD0BB68002B0AD07B68991CDE
:104780003B1C0E331B78BA68081C111C1A1C06F05F
:1047900027FEBD4604B080BD44B50000B0D6000081
:1047A00058B500007CB5000090B5000080B584B01D
:1047B00000AF786039600123FB600023BB607B6839
:1047C000002B06D141489B235900414A414B03F03D
:1047D000F1FC3B68002B07D13C483823191CFF3102
:1047E0003B4A3D4B03F0E6FC3B689B68002B06D13F
:1047F00036489C235900364A384B03F0DBFC7B6873
:104800001B7D1A1C7B689B69DBB2101C191CFFF70F
:1048100053FF031C002B07D12C483C23191CFF31EC
:104820002B4A2F4B03F0C6FC7B681433BB607B68BC
:104830001A1C0C322B4B101C01211A1C00F044F9DD
:10484000031CFB60FB68002B15D1BB681B781A1C8E
:10485000BB685B68DBB2101C191C012201F090FBE5
:104860007B681A1C0C321F4B101C00211A1C00F014
:104870002BF9031CFB60FB68002B08D17B681A68CE
:104880003B68101C191C01F0F3FB031CFB60FB6868
:10489000002B0AD17B681A1C0C32124B101C012110
:1048A0001A1C00F011F9031CFB60BB681B781A1C72
:1048B000BB685B68DBB2101C191C012201F09CFB79
:1048C000FB68181CBD4604B080BDC04644B500005E
:1048D000C0D60000A8B50000C0B50000DCB50000DF
:1048E000F8B5000080841E0080B588B000AFF86085
:1048F000B9607A600123FB61FB681433BB613B1C28
:10490000173300221A70FB68002B06D16648B923C2
:104910005900664A664B03F04DFCBB68002B07D17B
:1049200061487423191CFF31604A624B03F042FC5A
:10493000BB689B68002B06D15B48BA2359005B4AD1
:104940005D4B03F037FCBB691B781A1CBB695B68C5
:10495000DBB2101C191CFFF7AFFE031C002B06D1A5
:104960005148BB235900514A544B03F023FCBB6808
:104970009A683B1C17331A70BB681A68BB689B683F
:10498000101CFF211A1C06F034FDFB681A1C0C32A7
:104990007B68101C00211A1C00F096F8031CFB61B8
:1049A000FB69002B16D1BB691B781A1CBB695B68BD
:1049B000DBB2101C191C012201F0E2FABB680122D3
:1049C0009A60FB681A68BB68101C191C01F050FB48
:1049D000031CFB61FB69002B1DD1BB685B681B7866
:1049E0001A1CBB689A60BB689A683B1C17331B781B
:1049F0009A4203D8BB689B68002B0CD1BB691B781B
:104A00001A1CBB695B68DBB2101C191C012201F087
:104A1000F3FA2B4BFB61FB69002B26D1BB689B682B
:104A20005A1EBB689A60BB681B685A1CBB681A6038
:104A3000BB685B685A1CBB685A60FB681A68BB6835
:104A4000101C191C01F014FB031CFB61BB689B6864
:104A50005A1CBB689A60BB681B685A1EBB681A6008
:104A6000BB685B685A1EBB685A60FB69002B0AD1A1
:104A7000FB681A1C0C32134B101C01211A1C00F08D
:104A800023F8031CFB61BB691B781A1CBB695B68BC
:104A9000DBB2101C191C012201F0AEFAFB69181CD4
:104AA000BD4608B080BDC04644B50000D0D6000069
:104AB000A8B50000C0B50000DCB5000064B6000079
:104AC000252C000080841E0080B586B000AFF86001
:104AD0007A603B1C0B330A1C1A703B1C13330022F8
:104AE0001A7000237B61FB68002B06D12248E1236A
:104AF0005900224A224B03F05DFB7B68002B03D058
:104B00007A68204B9A4206D91B48E22359001B4A77
:104B10001D4B03F04FFBFB681B781A1CFB685B689E
:104B2000DBB2101C191CFFF7C7FD031C5A1E934172
:104B3000DAB23B1C13331A707B6964337B616420E7
:104B400001F03EF93B1C13331B78DBB21A1C3B1CF3
:104B50000B331B789A4203D07A687B699A42DAD881
:104B60007A687B699A4201D9002300E0074B181C40
:104B7000BD4606B080BDC04644B50000E4D6000086
:104B8000A8B60000FFE0F505C0B60000262C000026
:104B900080B58AB000AFF8607B603B1C0B331970A6
:104BA0003B1C0A331A7000237B623B1C14337A6867
:104BB0001A603B1C14333A6B5A603B1C0B331A7857
:104BC0003B1C14339A603B1C14330022DA60FB68F0
:104BD000002B06D12F48F52359002F4A2F4B03F005
:104BE000E9FA3B1C0B331B78002B07D12948EC2337
:104BF000191CFF31284A2A4B03F0DCFA7B68002B92
:104C000006D12448F6235900234A264B03F0D2FA52
:104C1000FA683B1C1433101C191CFFF7C7FD031C5A
:104C20007B627B6A002B01D07B6A2EE03B1C0A333F
:104C30001B78002B28D03B6B002B07D11548FC2399
:104C4000191CFF31144A184B03F0B4FA3B1C0A3309
:104C50001A783B1C14339A60F9683A1C14327B6B47
:104C6000081C111C1A1CFFF73FFE031C7B627B6AA9
:104C7000002B09D13B1C14335B68FA68101C191C0B
:104C800000F0ECF8031C7B627B6A181CBD460AB07E
:104C900080BDC04644B50000F4D60000A8B50000B1
:104CA000ECB60000FCB6000018B7000000000000E1
:104CB000B0B586B000AF78613961FA607A691E4B91
:104CC0009A4203D97A691D4B9A4205D91C481D495D
:104CD0001D4A1E4B03F06EFA7B69181C1C49FBF73A
:104CE0006BFC031C1A1C3B691A603B691B68184A61
:104CF00053437A69D21AFB681A60FB681B683B60F1
:104D000000237B603A68530B7A68D5041D433B68E7
:104D1000DC04201C291C074B054AFBF799FD031CEA
:104D20000C1C1A1CFB681A60BD4606B0B0BDC0461C
:104D30008024A50100000000BF8F312E00AB904100
:104D400044B500001902000008D7000034B7000085
:104D50008024A501C046C04680B584B000AF78600D
:104D600039600023FB603B680B4A534380221201E9
:104D70009B185B0BFB603B6834225343FA68D318E3
:104D8000FB607B68054A5343FA68D318FB60FB68F5
:104D9000181CBD4604B080BD921400008024A501FB
:104DA00080B584B000AFF860B9607A607B68002B92
:104DB00005D112481249134A134B03F0FBF97B68E3
:104DC0000233FA68D2B21A707B680333B968FF22E3
:104DD00012040A40120CD2B21A707B680433B9680C
:104DE000FF2212020A40120AD2B21A707B680533FF
:104DF000BA68D2B21A70BD4604B080BD44B5000096
:104E00004502000018D7000090B5000080B584B0BE
:104E100000AFF860B9607A60FB6803331B781A1C36
:104E2000BB681A60FB6804331B781B041A1C7B6880
:104E30001A607B681A68FB6805331B781B021A43EB
:104E40007B681A607B681A68FB6806331B781A4314
:104E50007B681A60BD4604B080BDC04680B582B094
:104E600000AF786039607B68002B05D1114812498A
:104E7000124A134B03F09EF93B68002B05D10D48F5
:104E800010490E4A104B03F095F93B6802331A782B
:104E90007B681A773B6801331A787B685A777B689E
:104EA0005B7F002B01D1002300E0084B181CBD469E
:104EB00002B080BD44B500009A02000028D700006F
:104EC000A8B500009B02000068B70000242C000079
:104ED00080B586B000AFF860B960FB1D1A70012381
:104EE0007B61FB68002B05D122482349234A244BD0
:104EF00003F060F9BB68002B05D11E4821491F4A09
:104F0000214B03F057F9BB685B68002B06D11948A9
:104F1000AD239900194A1D4B03F04CF9FB681A7830
:104F2000BB681A70BB681B78033BDAB2BB681A70A7
:104F3000BB681B78FA1D12789A4202D2144B7B612F
:104F400001E000237B617B69002B0ED1BB681B78DD
:104F5000002B0AD0BB685968FB68DA1CBB681B7859
:104F6000081C111C1A1C06F03BFA7B69181CBD4674
:104F700006B080BD44B50000B20200003CD700007E
:104F800068B70000B302000084B70000A0B70000BB
:104F9000252C000080B588B002AF7860396000230E
:104FA0007B613B1C133300221A707B68002B06D1F7
:104FB0003648B8239900364A364B03F0FBF83B6875
:104FC000002B05D131483449314A344B03F0F2F813
:104FD0007B6801221A777B6800225A777B681A1C4B
:104FE0000C322F4B101C01211A1CFFF76DFD031C06
:104FF0007B617B69002B05D17B68181C00F06EF982
:10500000031C7B617B69002B08D17A683B1C13333E
:10501000101C191C00F068FC031C7B617B69002BD1
:1050200009D13B1C13331B7801225340DBB2002B08
:1050300001D01C4B7B617B69002B08D13B681B783E
:105040007A68101C191C00F07BFD031C7B617B69D6
:10505000002B16D13B685A1C3B1C10330E2001213B
:10506000FFF742FB7A683B1C1033391C0C3100916E
:105070000D490191101C03210322FFF789FD031C38
:105080007B617B69181CBD4606B080BD44B500003D
:105090004CD70000A8B50000E1020000C8B700002E
:1050A000404B4C00272C000080841E0080B582B04D
:1050B00000AF78607B68002B05D107480749084A94
:1050C000084B03F077F87B6801221A707B680C228A
:1050D0005A70BD4602B080BD44B500001303000005
:1050E00054D70000C8B7000090B597B002AFF86081
:1050F0007A603B603B1C0B330A1C1A700023FB6474
:105100003B1C4B3300221A70FB68002B05D168480A
:105110006849694A694B03F04DF83B1C0B331B7817
:10512000002B04D03B1C0B331B78182B05D960488F
:105130006349614A634B03F03DF87B68002B06D15D
:105140005B48CC2399005C4A5F4B03F033F87B68E3
:105150001B780C2B05D956485C49574A5C4B03F029
:1051600029F83B1C0B331B78022B1DD03B1C0B3347
:105170001B78042B18D03B1C0B331B78092B13D046
:105180003B1C0B331B780E2B0ED03B1C0B331B78B8
:10519000102B09D03B1C0B331B78112B04D03B1C6C
:1051A0000B331B78142B03D17B685B68002B2ED14B
:1051B0003B1C0B331B78022B1DD03B1C0B331B7885
:1051C000042B18D03B1C0B331B78092B13D03B1C32
:1051D0000B331B780E2B0ED03B1C0B331B78102B84
:1051E00009D03B1C0B331B78112B04D03B1C0B3319
:1051F0001B78142B01D1012300E00023002B06D0E3
:105200002B48CD2399002C4A324B02F0D3FF3B1C94
:105210000B331B78012B10D03B1C0B331B78032B5B
:105220000BD03B1C0B331B780B2B06D03B1C0B33DA
:105230001B78122B01D01A2300E000233A1C4B32BA
:1052400013707B6819787B685A683B1C0B3318789D
:105250003B1C3033FFF748FA7B681B780233D9B226
:10526000F8683B1C4B331A783B1C30333C1C14341D
:105270000094194C0194FFF78BFC031CFB643B6802
:10528000002B0FD0FB6C002B0CD1391C14313A6869
:105290003B1C60331B78081C111C1A1CFFF718FEFE
:1052A000031CFB64FB6C181CBD4615B090BDC046CA
:1052B00044B500002E03000068D70000A8B5000028
:1052C0002F03000058B50000E4B7000031030000D0
:1052D00000B8000024B800000087930380B586B0B2
:1052E00002AF78600123FB607B68002B05D1114879
:1052F0001149124A124B02F05DFF3B1C083301209A
:1053000000210022FFF7F0F97A683B1C08330021E6
:1053100000910C490191101C02210022FFF738FC7A
:10532000031CFB60642000F025FDFB68181CBD46D3
:1053300004B080BD44B500005303000078D70000DE
:10534000A8B5000080841E0080B586B002AF7860EA
:105350007B68002B05D10F480F49104A104B02F013
:1053600029FF3B1C0C33032000210022FFF7BCF96E
:105370007A683B1C0C33002100910A490191101CF2
:1053800002210022FFF704FC031C181CBD4604B0D8
:1053900080BDC04644B500006B03000084D7000008
:1053A000A8B5000080841E0080B58CB002AF786084
:1053B000396000237B6200233B610023FB607B6834
:1053C000002B05D125482649264A274B02F0F2FE3C
:1053D0003A68264B9A4203D93A68254B9A4205D936
:1053E0001E4824491F4A244B02F0E4FE39683A1C47
:1053F00010323B1C0C33081C111C1A1CFFF758FC04
:105400003B1C1C33092004210022FFF76DF9396988
:10541000FA683B1C1C33081C111C1A1CFFF7C0FC4B
:105420007A683B1C1C33391C1431009113490191DB
:10543000101C06210322FFF7ABFB031C7B623B1C05
:1054400014331B78032B04D07B6A002B01D10C4B47
:105450007B627B6A181CBD460AB080BD44B5000063
:105460008103000090D70000A8B50000BF8F312E47
:1054700000AB90418203000034B7000080841E001E
:10548000252C000080B58CB002AF78603960002315
:105490007B6200233B610023FB607B68002B05D10E
:1054A00025482649264A274B02F084FE3B68002BFC
:1054B00005D121482449224A244B02F07BFE3B1CA3
:1054C0001C330A2000210022FFF70EF97A683B1CEA
:1054D0001C33391C143100911D490191101C02210B
:1054E0000722FFF755FB031C7B623B1C14331B7820
:1054F000072B04D07B6A002B01D1164B7B627B6AA1
:10550000002B13D1391C14313A1C10323B1C0C33C4
:10551000081C111C1A1CFFF779FC3A69FB68101C67
:10552000191CFFF719FC021C3B681A607B6A181CE7
:10553000BD460AB080BDC04644B50000AE030000C1
:10554000A4D70000A8B50000AF03000018BA0000FF
:1055500080841E00252C000080B58EB002AF7860DC
:1055600039600123FB627B68002B05D12448254963
:10557000254A264B02F01EFE3B68002B06D1204830
:10558000F7239900204A224B02F014FE3B681B7857
:10559000002B03D03B685B68002B05D118481D49E0
:1055A000194A1D4B02F006FE3B6819783B685A68A1
:1055B0003B1C1C330420FFF797F83B681B78023331
:1055C000DAB279683B1C1C33381C0C30009013484D
:1055D0000190081C111C0322FFF7DAFA031CFB627E
:1055E0003B1C0C331B78032B04D0FB6A002B01D12E
:1055F0000B4BFB62FB6A181CBD460CB080BDC0465D
:1056000044B50000DB030000B8D70000A8B50000D7
:10561000E4B70000DD03000030BA0000C0E1E400A0
:10562000252C000080B588B002AF786001237B6133
:105630007B68002B05D115481549164A164B02F018
:10564000B9FD3B1C1033052000210022FFF74CF868
:105650007A683B1C1033391C0C3100910F490191C1
:10566000101C02210322FFF793FA031C7B613B1CF1
:105670000C331B78032B04D07B69002B01D1084B22
:105680007B617B69181CBD4606B080BD44B5000037
:10569000FB030000C8D70000A8B50000C0E1E4008B
:1056A000252C000080B588B002AF786001237B61B3
:1056B0007B68002B05D115481549164A164B02F098
:1056C00079FD3B1C1033062000210022FFF70CF867
:1056D0007A683B1C1033391C0C3100910F49019141
:1056E000101C02210322FFF753FA031C7B613B1CB1
:1056F0000C331B78032B04D07B69002B01D1084BA2
:105700007B617B69181CBD4606B080BD44B50000B6
:105710001A040000D4D70000A8B50000C0E1E400DE
:10572000252C000080B58CB002AF78603960002372
:105730007B627B68002B05D126482749274A284BE6
:1057400002F038FD3B68002B05D122482549234A49
:10575000254B02F02FFD3B1C1833072000210022AF
:10576000FEF7C2FF7A683B1C1833391C0C310091DC
:105770001E490191101C02210B22FFF709FA031C9C
:105780007B623B1C0C331B780B2B04D07B6A002BF9
:1057900001D1174B7B627B6A002B16D13B1C0C336B
:1057A0001B78033BDAB23B681A703B681B78002B0E
:1057B0000BD03B6859683B681B783A1C0C320332AB
:1057C000081C111C1A1C05F00BFE7B6A181CBD4638
:1057D0000AB080BD44B5000039040000E8D70000DD
:1057E000A8B500003A04000084B7000000879303C6
:1057F000252C000080B586B002AF78607B68002B56
:1058000006D10F488C23D9000E4A0F4B02F0D2FC70
:105810003B1C0C33122000210022FEF765FF7A6842
:105820003B1C0C330021009108490191101C0221FE
:105830000022FFF7ADF9031C181CBD4604B080BD63
:1058400044B50000FCD70000A8B5000080841E000D
:1058500080B588B002AF7860396001237B617B68D6
:10586000002B05D11A481B491B4A1C4B02F0A2FC15
:105870003B1C10330C2000210022FEF735FF7A6814
:105880003B1C1033391C0C31009115490191101C3F
:1058900002210422FFF77CF9031C7B613B1C0C33C3
:1058A0001B78042B04D07B69002B01D10D4B7B614D
:1058B0007B69002B07D13B1C0C33DB785A1E9341CC
:1058C000DAB23B681A707B69181CBD4606B080BD11
:1058D00044B500007504000010D80000A8B5000011
:1058E00080841E00252C000080B58CB002AF78604B
:1058F000396000237B623A1C08324B4B111C1A1C86
:105900000523081C111C1A1C05F06AFD3B1C2233E0
:1059100005221A703B1C233300221A707B68002B6F
:1059200005D142484249434A434B02F043FC3B689D
:10593000002B06D13D489C23D9003E4A3F4B02F044
:1059400039FC3B1C22331B78002B04D03B1C223338
:105950001B78052B05D935483949364A394B02F0B1
:1059600029FC3B6800221A703B1C223319783A1C30
:1059700008323B1C18330220FEF7B6FE3B1C2233D4
:105980001B780333DAB279683B1C1833381C1030AB
:1059900000902D480190081C0721FFF7F9F8031C1F
:1059A0007B627B6A002B0BD13B1C10331B781A1CCB
:1059B0003B1C22331B7803339A4201D0234B7B627A
:1059C0007B6A002B2BD13B6801221A703B1C2333CE
:1059D00000221A701BE03B1C23331B7803333A1C54
:1059E0001032D35CDB43DAB23B1C23331B78391C07
:1059F0000831CB5C9A4203D03B6800221A700EE05B
:105A00003B1C23331A783B1C233301321A703A1C97
:105A100023323B1C223312781B789A42DBD37B6AF9
:105A2000181CBD460AB080BDF8BA000044B500009D
:105A3000DF04000020D80000A8B50000B4BA0000C0
:105A4000E1040000CCBA000080841E00252C000078
:105A500080B58AB002AF78600A1CFB1C1A70002364
:105A6000FB617B68002B05D118481949194A1A4B6C
:105A700002F0A0FB3B1C1433142003210022FEF78C
:105A800033FEFB1C1B781B12DAB23B1C14339A70DA
:105A90003B1C1433FA1C1278DA703B1C14330022BE
:105AA0001A717A683B1C1433391C0C3100910B4974
:105AB0000191101C05210322FFF76AF8031CFB610A
:105AC000FB69181CBD4608B080BDC04644B5000047
:105AD0001305000030D80000A8B50000C0E1E400C4
:105AE00080B586B002AF78607B68002B05D10F4887
:105AF0000F49104A104B02F05DFB3B1C0C330B208E
:105B000000210022FEF7F0FD7A683B1C0C330021D7
:105B100000910A490191101C02210022FFF738F878
:105B2000031C181CBD4604B080BDC04644B500002F
:105B30003405000040D80000A8B50000C0E1E40032
:105B400080B588B002AF78600A1CFB1C1A70002375
:105B50007B613B1C133315221A707B68002B05D127
:105B600019481A491A4A1B4B02F024FB3B1C1333F9
:105B7000FA1C127815321A703B1C13331A783B1C2E
:105B80001033101C00210022FEF7AEFD7A683B1C8A
:105B90001033391C0C3100910F490191101C022166
:105BA0000322FEF7F5FF031C7B617B69002B06D106
:105BB0003B1C0C331B78032B01D0084B7B617B69AA
:105BC000181CBD4606B080BD44B500004B05000062
:105BD00054D80000A8B5000080841E00252C0000C9
:105BE00080B582B000AF78600A1CFB1C1A70074BAE
:105BF0007A689200D358FA1C12780121081C904050
:105C0000021C5A60BD4602B080BDC04670D800007C
:105C100090B583B000AF7860FB1C1970BB1C1A7084
:105C2000BB1C1B78002B12D1134B7A689200D358FF
:105C3000114A796889008A585269F91C097801204B
:105C4000041C8C40211CC9430A405A6110E00A4BD5
:105C50007A689200D358084A796889008A5851694D
:105C6000FA1C12780120041C9440221C0A435A6139
:105C7000BD4603B090BDC04670D8000080B58AB064
:105C800000AF786039603B68002B2DD17B689A6843
:105C90003B1C0C331A603B1C0C3301221A713B1C59
:105CA0000C3300225A713B1C0C3300229A713B1CAE
:105CB0000C330122DA717B685A683B1C0C339A6002
:105CC0003A1C0C323B1C1833101C191C00F01EF936
:105CD0007B6819687B685B683A1C1832081C111CC9
:105CE0001A1C00F0C5F809E07B6819687B685B68DE
:105CF0003A68081C111C1A1C00F0BAF8BD460AB01C
:105D000080BDC04680B582B000AF78607B68002B54
:105D100006D11549154A164B081C572102F04AFABC
:105D20007B681B781A1C7B685B68DBB2101C191C33
:105D30000022FFF76DFF7B681B7A1A1C7B68DB680B
:105D4000DBB2101C191CFFF74BFF7B681B7A1A1C77
:105D50007B68DB68DBB2101C191C0122FFF758FFBF
:105D6000BD4602B080BDC04624BB000084D8000000
:105D70003CBB000080B584B000AF021CBB1D1A8084
:105D800002F072F8031C181CFA239900FAF714FCAD
:105D9000031CFB60FB6803229343FB6009E0FB6884
:105DA000181C0438C046FCD1BB1D1A88BB1D013A23
:105DB0001A80BB1D1B88002BF1D1BD4604B080BDED
:105DC00080B584B000AF021CBB1D1A8002F04CF8F5
:105DD000031C181CFA239900FAF7EEFB031CBA1DEA
:105DE00012885343181CFA239900FAF7E5FB031CA9
:105DF000FB60FB680722934304221343FB60FB68AC
:105E0000181C0438C046FCD1BD4604B080BDC04655
:105E100080B582B000AF78600A1CFB1C1A70074B7B
